{
  "contractName": "CityHacks",
  "abi": [
    {
      "inputs": [],
      "stateMutability": "nonpayable",
      "type": "constructor"
    },
    {
      "anonymous": false,
      "inputs": [
        {
          "indexed": true,
          "internalType": "address",
          "name": "from",
          "type": "address"
        },
        {
          "indexed": true,
          "internalType": "uint256",
          "name": "id",
          "type": "uint256"
        },
        {
          "indexed": false,
          "internalType": "string",
          "name": "description",
          "type": "string"
        },
        {
          "indexed": false,
          "internalType": "uint256",
          "name": "timestamp",
          "type": "uint256"
        }
      ],
      "name": "NewHack",
      "type": "event"
    },
    {
      "anonymous": false,
      "inputs": [
        {
          "indexed": true,
          "internalType": "address",
          "name": "previousOwner",
          "type": "address"
        },
        {
          "indexed": true,
          "internalType": "address",
          "name": "newOwner",
          "type": "address"
        }
      ],
      "name": "OwnershipTransferred",
      "type": "event"
    },
    {
      "anonymous": false,
      "inputs": [
        {
          "indexed": true,
          "internalType": "address",
          "name": "from",
          "type": "address"
        },
        {
          "indexed": true,
          "internalType": "uint256",
          "name": "id",
          "type": "uint256"
        },
        {
          "indexed": false,
          "internalType": "bool",
          "name": "_inadecuate",
          "type": "bool"
        },
        {
          "indexed": true,
          "internalType": "uint256",
          "name": "latestReportBlock",
          "type": "uint256"
        },
        {
          "indexed": false,
          "internalType": "uint256",
          "name": "timestamp",
          "type": "uint256"
        },
        {
          "indexed": false,
          "internalType": "uint256[]",
          "name": "reportedHacks",
          "type": "uint256[]"
        }
      ],
      "name": "TrustReport",
      "type": "event"
    },
    {
      "anonymous": false,
      "inputs": [
        {
          "indexed": true,
          "internalType": "address",
          "name": "from",
          "type": "address"
        },
        {
          "indexed": true,
          "internalType": "uint256",
          "name": "hackId",
          "type": "uint256"
        },
        {
          "indexed": false,
          "internalType": "bool",
          "name": "_positive",
          "type": "bool"
        },
        {
          "indexed": false,
          "internalType": "uint256",
          "name": "timestamp",
          "type": "uint256"
        }
      ],
      "name": "VotedHack",
      "type": "event"
    },
    {
      "inputs": [],
      "name": "owner",
      "outputs": [
        {
          "internalType": "address",
          "name": "",
          "type": "address"
        }
      ],
      "stateMutability": "view",
      "type": "function"
    },
    {
      "inputs": [],
      "name": "renounceOwnership",
      "outputs": [],
      "stateMutability": "nonpayable",
      "type": "function"
    },
    {
      "inputs": [
        {
          "internalType": "address",
          "name": "newOwner",
          "type": "address"
        }
      ],
      "name": "transferOwnership",
      "outputs": [],
      "stateMutability": "nonpayable",
      "type": "function"
    },
    {
      "inputs": [],
      "name": "getLatestReportBlock",
      "outputs": [
        {
          "internalType": "uint256",
          "name": "",
          "type": "uint256"
        }
      ],
      "stateMutability": "view",
      "type": "function"
    },
    {
      "inputs": [
        {
          "internalType": "uint256",
          "name": "_hackId",
          "type": "uint256"
        },
        {
          "internalType": "uint256[]",
          "name": "_reportedHacks",
          "type": "uint256[]"
        }
      ],
      "name": "reportHack",
      "outputs": [],
      "stateMutability": "nonpayable",
      "type": "function"
    },
    {
      "inputs": [
        {
          "internalType": "uint256",
          "name": "_hackId",
          "type": "uint256"
        },
        {
          "internalType": "uint256[]",
          "name": "_reportedHacks",
          "type": "uint256[]"
        }
      ],
      "name": "unreportHack",
      "outputs": [],
      "stateMutability": "nonpayable",
      "type": "function"
    },
    {
      "inputs": [
        {
          "internalType": "uint256",
          "name": "_hackId",
          "type": "uint256"
        },
        {
          "internalType": "uint256[]",
          "name": "_reportedHacks",
          "type": "uint256[]"
        }
      ],
      "name": "hideAndUnreportHack",
      "outputs": [],
      "stateMutability": "nonpayable",
      "type": "function"
    },
    {
      "inputs": [
        {
          "internalType": "uint256",
          "name": "_hackId",
          "type": "uint256"
        }
      ],
      "name": "hideHack",
      "outputs": [],
      "stateMutability": "nonpayable",
      "type": "function"
    },
    {
      "inputs": [
        {
          "internalType": "string",
          "name": "_description",
          "type": "string"
        },
        {
          "internalType": "uint256",
          "name": "_cityId",
          "type": "uint256"
        },
        {
          "internalType": "uint256",
          "name": "_categoryId",
          "type": "uint256"
        }
      ],
      "name": "postHack",
      "outputs": [],
      "stateMutability": "nonpayable",
      "type": "function"
    },
    {
      "inputs": [
        {
          "internalType": "uint256",
          "name": "_hackId",
          "type": "uint256"
        },
        {
          "internalType": "bool",
          "name": "_positive",
          "type": "bool"
        }
      ],
      "name": "voteHack",
      "outputs": [],
      "stateMutability": "nonpayable",
      "type": "function"
    },
    {
      "inputs": [
        {
          "internalType": "uint256",
          "name": "_hackId",
          "type": "uint256"
        }
      ],
      "name": "tipHacker",
      "outputs": [],
      "stateMutability": "payable",
      "type": "function"
    },
    {
      "inputs": [],
      "name": "getAllHacks",
      "outputs": [
        {
          "components": [
            {
              "internalType": "address",
              "name": "owner",
              "type": "address"
            },
            {
              "internalType": "uint256",
              "name": "id",
              "type": "uint256"
            },
            {
              "internalType": "uint256",
              "name": "cityId",
              "type": "uint256"
            },
            {
              "internalType": "uint256",
              "name": "categoryId",
              "type": "uint256"
            },
            {
              "internalType": "string",
              "name": "description",
              "type": "string"
            },
            {
              "internalType": "uint256",
              "name": "timestamp",
              "type": "uint256"
            },
            {
              "internalType": "bool",
              "name": "isVotingBlocked",
              "type": "bool"
            },
            {
              "internalType": "uint256",
              "name": "totalUpvotes",
              "type": "uint256"
            },
            {
              "internalType": "uint256",
              "name": "totalDownvotes",
              "type": "uint256"
            },
            {
              "internalType": "bool",
              "name": "hidden",
              "type": "bool"
            }
          ],
          "internalType": "struct CityHacks.Hack[]",
          "name": "",
          "type": "tuple[]"
        }
      ],
      "stateMutability": "view",
      "type": "function"
    },
    {
      "inputs": [],
      "name": "getTotalHacks",
      "outputs": [
        {
          "internalType": "uint256",
          "name": "",
          "type": "uint256"
        }
      ],
      "stateMutability": "view",
      "type": "function"
    }
  ],
  "bytecode": "0x608060405234801561001057600080fd5b5061002d61002261003260201b60201c565b61003a60201b60201c565b6100fe565b600033905090565b60008060009054906101000a900473ffffffffffffffffffffffffffffffffffffffff169050816000806101000a81548173ffffffffffffffffffffffffffffffffffffffff021916908373ffffffffffffffffffffffffffffffffffffffff1602179055508173ffffffffffffffffffffffffffffffffffffffff168173ffffffffffffffffffffffffffffffffffffffff167f8be0079c531659141344cd1fd0a4f28419497f9722a3daafe3b4186f6b6457e060405160405180910390a35050565b611e328061010d6000396000f3fe6080604052600436106100c25760003560e01c80638e15f0d51161007f578063c70ccbb011610059578063c70ccbb01461021f578063cf42dfe714610248578063e3653b1b14610271578063f2fde38b1461029c576100c2565b80638e15f0d5146101a0578063b037aa1c146101cb578063c342b5af146101f6576100c2565b80633ba5fc3e146100c75780634218869e146100e357806342a667331461010c5780636cd7d76814610135578063715018a61461015e5780638da5cb5b14610175575b600080fd5b6100e160048036038101906100dc9190611294565b6102c5565b005b3480156100ef57600080fd5b5061010a6004803603810190610105919061141a565b6103ba565b005b34801561011857600080fd5b50610133600480360381019061012e919061141a565b61044d565b005b34801561014157600080fd5b5061015c60048036038101906101579190611294565b6104e4565b005b34801561016a57600080fd5b506101736105a1565b005b34801561018157600080fd5b5061018a610629565b60405161019791906114b7565b60405180910390f35b3480156101ac57600080fd5b506101b5610652565b6040516101c2919061172f565b60405180910390f35b3480156101d757600080fd5b506101e061080c565b6040516101ed9190611760565b60405180910390f35b34801561020257600080fd5b5061021d600480360381019061021891906117a7565b610816565b005b34801561022b57600080fd5b506102466004803603810190610241919061141a565b610c1d565b005b34801561025457600080fd5b5061026f600480360381019061026a919061189c565b610d4b565b005b34801561027d57600080fd5b50610286610f5d565b6040516102939190611760565b60405180910390f35b3480156102a857600080fd5b506102c360048036038101906102be9190611937565b610fe3565b005b6000600482815481106102db576102da611964565b5b90600052602060002090600a020160000160009054906101000a900473ffffffffffffffffffffffffffffffffffffffff1673ffffffffffffffffffffffffffffffffffffffff1634604051610330906119c4565b60006040518083038185875af1925050503d806000811461036d576040519150601f19603f3d011682016040523d82523d6000602084013e610372565b606091505b50509050806103b6576040517f08c379a00000000000000000000000000000000000000000000000000000000081526004016103ad90611a36565b60405180910390fd5b5050565b6103c26110db565b73ffffffffffffffffffffffffffffffffffffffff166103e0610629565b73ffffffffffffffffffffffffffffffffffffffff1614610436576040517f08c379a000000000000000000000000000000000000000000000000000000000815260040161042d90611aa2565b60405180910390fd5b6104408282610c1d565b610449826104e4565b5050565b8051600160035461045e9190611af1565b1461046857600080fd5b436002819055506001600360008282546104829190611af1565b92505081905550600254823373ffffffffffffffffffffffffffffffffffffffff167fc0c0a23159c4325ee57855cf2c9c8c4949fd576681992d2582912ab0f4db9d20600142866040516104d893929190611c05565b60405180910390a45050565b6104ec6110db565b73ffffffffffffffffffffffffffffffffffffffff1661050a610629565b73ffffffffffffffffffffffffffffffffffffffff1614610560576040517f08c379a000000000000000000000000000000000000000000000000000000000815260040161055790611aa2565b60405180910390fd5b60016004828154811061057657610575611964565b5b90600052602060002090600a020160090160006101000a81548160ff02191690831515021790555050565b6105a96110db565b73ffffffffffffffffffffffffffffffffffffffff166105c7610629565b73ffffffffffffffffffffffffffffffffffffffff161461061d576040517f08c379a000000000000000000000000000000000000000000000000000000000815260040161061490611aa2565b60405180910390fd5b61062760006110e3565b565b60008060009054906101000a900473ffffffffffffffffffffffffffffffffffffffff16905090565b60606004805480602002602001604051908101604052809291908181526020016000905b8282101561080357838290600052602060002090600a0201604051806101400160405290816000820160009054906101000a900473ffffffffffffffffffffffffffffffffffffffff1673ffffffffffffffffffffffffffffffffffffffff1673ffffffffffffffffffffffffffffffffffffffff16815260200160018201548152602001600282015481526020016003820154815260200160048201805461071e90611c72565b80601f016020809104026020016040519081016040528092919081815260200182805461074a90611c72565b80156107975780601f1061076c57610100808354040283529160200191610797565b820191906000526020600020905b81548152906001019060200180831161077a57829003601f168201915b50505050508152602001600582015481526020016006820160009054906101000a900460ff1615151515815260200160078201548152602001600882015481526020016009820160009054906101000a900460ff16151515158152505081526020019060010190610676565b50505050905090565b6000600154905090565b6004828154811061082a57610829611964565b5b90600052602060002090600a020160000160009054906101000a900473ffffffffffffffffffffffffffffffffffffffff1673ffffffffffffffffffffffffffffffffffffffff163373ffffffffffffffffffffffffffffffffffffffff16141561089457600080fd5b6000600560003373ffffffffffffffffffffffffffffffffffffffff1673ffffffffffffffffffffffffffffffffffffffff16815260200190815260200160002060008481526020019081526020016000206040518060400160405290816000820160009054906101000a900460ff161515151581526020016000820160019054906101000a900460ff1615151515815250509050806000015115610a515781151581602001511515141561094857600080fd5b8060200151156109d15760016004848154811061096857610967611964565b5b90600052602060002090600a020160070160008282546109889190611ca4565b925050819055506001600484815481106109a5576109a4611964565b5b90600052602060002090600a020160080160008282546109c59190611af1565b92505081905550610a4c565b6001600484815481106109e7576109e6611964565b5b90600052602060002090600a02016007016000828254610a079190611af1565b92505081905550600160048481548110610a2457610a23611964565b5b90600052602060002090600a02016008016000828254610a449190611ca4565b925050819055505b610ae9565b8115610a9957600160048481548110610a6d57610a6c611964565b5b90600052602060002090600a02016007016000828254610a8d9190611af1565b92505081905550610ad7565b600160048481548110610aaf57610aae611964565b5b90600052602060002090600a02016008016000828254610acf9190611af1565b925050819055505b60018160000190151590811515815250505b8181602001901515908115158152505080600560003373ffffffffffffffffffffffffffffffffffffffff1673ffffffffffffffffffffffffffffffffffffffff168152602001908152602001600020600085815260200190815260200160002060008201518160000160006101000a81548160ff02191690831515021790555060208201518160000160016101000a81548160ff02191690831515021790555090505060066000848152602001908152602001600020429080600181540180825580915050600190039060005260206000200160009091909190915055823373ffffffffffffffffffffffffffffffffffffffff167f4fb078f057caaccd039905efcc630de8af450d7c575a79dcddc983edd7423c128442604051610c10929190611cd8565b60405180910390a3505050565b610c256110db565b73ffffffffffffffffffffffffffffffffffffffff16610c43610629565b73ffffffffffffffffffffffffffffffffffffffff1614610c99576040517f08c379a0000000000000000000000000000000000000000000000000000000008152600401610c9090611aa2565b60405180910390fd5b80516001600354610caa9190611ca4565b148015610cc6575060006001600354610cc39190611ca4565b10155b610ccf57600080fd5b43600281905550600160036000828254610ce99190611ca4565b92505081905550600254823373ffffffffffffffffffffffffffffffffffffffff167fc0c0a23159c4325ee57855cf2c9c8c4949fd576681992d2582912ab0f4db9d2060004286604051610d3f93929190611c05565b60405180910390a45050565b600083905060008151118015610d615750600083115b8015610d6d5750600082115b610d7657600080fd5b60046040518061014001604052803373ffffffffffffffffffffffffffffffffffffffff168152602001600154815260200185815260200184815260200186815260200142815260200160001515815260200160008152602001600081526020016000151581525090806001815401808255809150506001900390600052602060002090600a020160009091909190915060008201518160000160006101000a81548173ffffffffffffffffffffffffffffffffffffffff021916908373ffffffffffffffffffffffffffffffffffffffff1602179055506020820151816001015560408201518160020155606082015181600301556080820151816004019080519060200190610e889291906111a7565b5060a0820151816005015560c08201518160060160006101000a81548160ff02191690831515021790555060e0820151816007015561010082015181600801556101208201518160090160006101000a81548160ff02191690831515021790555050506001806000828254610efd9190611af1565b925050819055506001543373ffffffffffffffffffffffffffffffffffffffff167ff1bd87d4783914bb1934b1c002d65179a1a8d7f4f3f64a198b93c9e8762204b58642604051610f4f929190611d3a565b60405180910390a350505050565b6000610f676110db565b73ffffffffffffffffffffffffffffffffffffffff16610f85610629565b73ffffffffffffffffffffffffffffffffffffffff1614610fdb576040517f08c379a0000000000000000000000000000000000000000000000000000000008152600401610fd290611aa2565b60405180910390fd5b600254905090565b610feb6110db565b73ffffffffffffffffffffffffffffffffffffffff16611009610629565b73ffffffffffffffffffffffffffffffffffffffff161461105f576040517f08c379a000000000000000000000000000000000000000000000000000000000815260040161105690611aa2565b60405180910390fd5b600073ffffffffffffffffffffffffffffffffffffffff168173ffffffffffffffffffffffffffffffffffffffff1614156110cf576040517f08c379a00000000000000000000000000000000000000000000000000000000081526004016110c690611ddc565b60405180910390fd5b6110d8816110e3565b50565b600033905090565b60008060009054906101000a900473ffffffffffffffffffffffffffffffffffffffff169050816000806101000a81548173ffffffffffffffffffffffffffffffffffffffff021916908373ffffffffffffffffffffffffffffffffffffffff1602179055508173ffffffffffffffffffffffffffffffffffffffff168173ffffffffffffffffffffffffffffffffffffffff167f8be0079c531659141344cd1fd0a4f28419497f9722a3daafe3b4186f6b6457e060405160405180910390a35050565b8280546111b390611c72565b90600052602060002090601f0160209004810192826111d5576000855561121c565b82601f106111ee57805160ff191683800117855561121c565b8280016001018555821561121c579182015b8281111561121b578251825591602001919060010190611200565b5b509050611229919061122d565b5090565b5b8082111561124657600081600090555060010161122e565b5090565b6000604051905090565b600080fd5b600080fd5b6000819050919050565b6112718161125e565b811461127c57600080fd5b50565b60008135905061128e81611268565b92915050565b6000602082840312156112aa576112a9611254565b5b60006112b88482850161127f565b91505092915050565b600080fd5b6000601f19601f8301169050919050565b7f4e487b7100000000000000000000000000000000000000000000000000000000600052604160045260246000fd5b61130f826112c6565b810181811067ffffffffffffffff8211171561132e5761132d6112d7565b5b80604052505050565b600061134161124a565b905061134d8282611306565b919050565b600067ffffffffffffffff82111561136d5761136c6112d7565b5b602082029050602081019050919050565b600080fd5b600061139661139184611352565b611337565b905080838252602082019050602084028301858111156113b9576113b861137e565b5b835b818110156113e257806113ce888261127f565b8452602084019350506020810190506113bb565b5050509392505050565b600082601f830112611401576114006112c1565b5b8135611411848260208601611383565b91505092915050565b6000806040838503121561143157611430611254565b5b600061143f8582860161127f565b925050602083013567ffffffffffffffff8111156114605761145f611259565b5b61146c858286016113ec565b9150509250929050565b600073ffffffffffffffffffffffffffffffffffffffff82169050919050565b60006114a182611476565b9050919050565b6114b181611496565b82525050565b60006020820190506114cc60008301846114a8565b92915050565b600081519050919050565b600082825260208201905092915050565b6000819050602082019050919050565b61150781611496565b82525050565b6115168161125e565b82525050565b600081519050919050565b600082825260208201905092915050565b60005b8381101561155657808201518184015260208101905061153b565b83811115611565576000848401525b50505050565b60006115768261151c565b6115808185611527565b9350611590818560208601611538565b611599816112c6565b840191505092915050565b60008115159050919050565b6115b9816115a4565b82525050565b6000610140830160008301516115d860008601826114fe565b5060208301516115eb602086018261150d565b5060408301516115fe604086018261150d565b506060830151611611606086018261150d565b5060808301518482036080860152611629828261156b565b91505060a083015161163e60a086018261150d565b5060c083015161165160c08601826115b0565b5060e083015161166460e086018261150d565b5061010083015161167961010086018261150d565b5061012083015161168e6101208601826115b0565b508091505092915050565b60006116a583836115bf565b905092915050565b6000602082019050919050565b60006116c5826114d2565b6116cf81856114dd565b9350836020820285016116e1856114ee565b8060005b8581101561171d57848403895281516116fe8582611699565b9450611709836116ad565b925060208a019950506001810190506116e5565b50829750879550505050505092915050565b6000602082019050818103600083015261174981846116ba565b905092915050565b61175a8161125e565b82525050565b60006020820190506117756000830184611751565b92915050565b611784816115a4565b811461178f57600080fd5b50565b6000813590506117a18161177b565b92915050565b600080604083850312156117be576117bd611254565b5b60006117cc8582860161127f565b92505060206117dd85828601611792565b9150509250929050565b600080fd5b600067ffffffffffffffff821115611807576118066112d7565b5b611810826112c6565b9050602081019050919050565b82818337600083830152505050565b600061183f61183a846117ec565b611337565b90508281526020810184848401111561185b5761185a6117e7565b5b61186684828561181d565b509392505050565b600082601f830112611883576118826112c1565b5b813561189384826020860161182c565b91505092915050565b6000806000606084860312156118b5576118b4611254565b5b600084013567ffffffffffffffff8111156118d3576118d2611259565b5b6118df8682870161186e565b93505060206118f08682870161127f565b92505060406119018682870161127f565b9150509250925092565b61191481611496565b811461191f57600080fd5b50565b6000813590506119318161190b565b92915050565b60006020828403121561194d5761194c611254565b5b600061195b84828501611922565b91505092915050565b7f4e487b7100000000000000000000000000000000000000000000000000000000600052603260045260246000fd5b600081905092915050565b50565b60006119ae600083611993565b91506119b98261199e565b600082019050919050565b60006119cf826119a1565b9150819050919050565b600082825260208201905092915050565b7f4661696c656420746f2073656e64204574686572000000000000000000000000600082015250565b6000611a206014836119d9565b9150611a2b826119ea565b602082019050919050565b60006020820190508181036000830152611a4f81611a13565b9050919050565b7f4f776e61626c653a2063616c6c6572206973206e6f7420746865206f776e6572600082015250565b6000611a8c6020836119d9565b9150611a9782611a56565b602082019050919050565b60006020820190508181036000830152611abb81611a7f565b9050919050565b7f4e487b7100000000000000000000000000000000000000000000000000000000600052601160045260246000fd5b6000611afc8261125e565b9150611b078361125e565b9250827fffffffffffffffffffffffffffffffffffffffffffffffffffffffffffffffff03821115611b3c57611b3b611ac2565b5b828201905092915050565b611b50816115a4565b82525050565b600081519050919050565b600082825260208201905092915050565b6000819050602082019050919050565b6000611b8e838361150d565b60208301905092915050565b6000602082019050919050565b6000611bb282611b56565b611bbc8185611b61565b9350611bc783611b72565b8060005b83811015611bf8578151611bdf8882611b82565b9750611bea83611b9a565b925050600181019050611bcb565b5085935050505092915050565b6000606082019050611c1a6000830186611b47565b611c276020830185611751565b8181036040830152611c398184611ba7565b9050949350505050565b7f4e487b7100000000000000000000000000000000000000000000000000000000600052602260045260246000fd5b60006002820490506001821680611c8a57607f821691505b60208210811415611c9e57611c9d611c43565b5b50919050565b6000611caf8261125e565b9150611cba8361125e565b925082821015611ccd57611ccc611ac2565b5b828203905092915050565b6000604082019050611ced6000830185611b47565b611cfa6020830184611751565b9392505050565b6000611d0c8261151c565b611d1681856119d9565b9350611d26818560208601611538565b611d2f816112c6565b840191505092915050565b60006040820190508181036000830152611d548185611d01565b9050611d636020830184611751565b9392505050565b7f4f776e61626c653a206e6577206f776e657220697320746865207a65726f206160008201527f6464726573730000000000000000000000000000000000000000000000000000602082015250565b6000611dc66026836119d9565b9150611dd182611d6a565b604082019050919050565b60006020820190508181036000830152611df581611db9565b905091905056fea26469706673582212206df54e6eff7c300f7a0aa6b6cd22ee9bd885fd9f4feac7aa5a3329c46f0ae47064736f6c634300080b0033",
  "immutableReferences": {},
  "source": "// SPDX-License-Identifier: UNLICENSED\n\npragma solidity ^0.8.0;\n\nimport \"hardhat/console.sol\";\nimport \"@openzeppelin/contracts/access/Ownable.sol\";\n\ncontract CityHacks is Ownable {\n    uint256 totalHacks;\n\n    uint256 private latestReportBlock;\n    uint256 private reportedHacksCount;\n\n    event TrustReport(address indexed from, uint256 indexed id, bool _inadecuate, uint256 indexed latestReportBlock, uint256 timestamp, uint256[] reportedHacks);\n\n    event NewHack(address indexed from, uint256 indexed id, string description, uint256 timestamp);\n    event VotedHack(address indexed from, uint256 indexed hackId, bool _positive, uint256 timestamp);\n\n    struct Hack {\n        address owner;\n        uint256 id;\n        uint256 cityId;\n        uint256 categoryId;\n        string description;\n        uint256 timestamp;\n        bool isVotingBlocked;\n        uint256 totalUpvotes;\n        uint256 totalDownvotes;\n        bool hidden;\n    }\n\n    struct AddressVote {\n        bool voted;\n        bool voteResult;\n    }\n\n    Hack[] hacks;\n    mapping(address => mapping(uint256 => AddressVote)) votes;\n    mapping(uint256 => uint256[]) voteTimestamps;\n\n    constructor() {}\n\n    function getLatestReportBlock() public view onlyOwner returns (uint256) {\n        return latestReportBlock;\n    }\n\n    function reportHack(uint256 _hackId, uint256[] memory _reportedHacks) public {\n        require(reportedHacksCount + 1 == _reportedHacks.length);\n        latestReportBlock = block.number;\n        reportedHacksCount += 1;\n        emit TrustReport(msg.sender, _hackId, true, latestReportBlock, block.timestamp, _reportedHacks);\n    }\n\n    function unreportHack(uint256 _hackId, uint256[] memory _reportedHacks) public onlyOwner {\n        require(reportedHacksCount - 1 == _reportedHacks.length && reportedHacksCount - 1 >= 0);\n        latestReportBlock = block.number;\n        reportedHacksCount -= 1;\n        emit TrustReport(msg.sender, _hackId, false, latestReportBlock, block.timestamp, _reportedHacks);\n    }\n\n    function hideAndUnreportHack(uint256 _hackId, uint256[] memory _reportedHacks) public onlyOwner {\n        unreportHack(_hackId, _reportedHacks);\n        hideHack(_hackId);\n    }\n\n    function hideHack(uint256 _hackId) public onlyOwner {\n        hacks[_hackId].hidden = true;\n    }\n\n    function postHack(string memory _description, uint256 _cityId, uint256 _categoryId) public {\n        bytes memory stringBytes = bytes(_description);\n        require(stringBytes.length > 0 && _cityId > 0 && _categoryId > 0);\n        hacks.push(Hack(msg.sender, totalHacks, _cityId, _categoryId, _description, block.timestamp, false, 0, 0, false));\n        totalHacks += 1;\n        emit NewHack(msg.sender, totalHacks, _description, block.timestamp);\n    }\n\n    function voteHack(uint256 _hackId, bool _positive) public {\n        require(msg.sender != hacks[_hackId].owner);\n        AddressVote memory addressVote = votes[msg.sender][_hackId];\n        if (addressVote.voted) {\n            require(addressVote.voteResult != _positive);\n            if (addressVote.voteResult) {\n                hacks[_hackId].totalUpvotes -= 1;\n                hacks[_hackId].totalDownvotes += 1;\n            } else {\n                hacks[_hackId].totalUpvotes += 1;\n                hacks[_hackId].totalDownvotes -= 1;\n            }\n        } else {\n            if (_positive) {\n                hacks[_hackId].totalUpvotes += 1;\n            }\n            else {\n                hacks[_hackId].totalDownvotes += 1;\n            }\n            addressVote.voted = true;\n        }\n        addressVote.voteResult = _positive;\n        votes[msg.sender][_hackId] = addressVote;\n        voteTimestamps[_hackId].push(block.timestamp);\n        emit VotedHack(msg.sender, _hackId, _positive, block.timestamp);\n    }\n\n    function tipHacker(uint256 _hackId) payable public {\n        (bool sent,) = hacks[_hackId].owner.call{value: msg.value}(\"\");\n        require(sent, \"Failed to send Ether\");\n    }\n\n    function getAllHacks() public view returns(Hack[] memory) {\n        return hacks;\n    }\n\n    function getTotalHacks() public view returns (uint256) {\n        return totalHacks;\n    }\n}\n",
  "sourcePath": "/Users/glovoMarcos/Documents/cityhacks/contracts/CityHacks.sol",
  "compiler": {
    "name": "solc",
    "version": "0.8.11+commit.d7f03943.Emscripten.clang"
  },
  "schemaVersion": "3.4.4",
  "updatedAt": "2022-01-10T12:08:22.039Z",
  "devdoc": {
    "kind": "dev",
    "methods": {
      "owner()": {
        "details": "Returns the address of the current owner."
      },
      "renounceOwnership()": {
        "details": "Leaves the contract without owner. It will not be possible to call `onlyOwner` functions anymore. Can only be called by the current owner. NOTE: Renouncing ownership will leave the contract without an owner, thereby removing any functionality that is only available to the owner."
      },
      "transferOwnership(address)": {
        "details": "Transfers ownership of the contract to a new account (`newOwner`). Can only be called by the current owner."
      }
    },
    "version": 1
  },
  "userdoc": {
    "kind": "user",
    "methods": {},
    "version": 1
  }
}